:100000000C9434000C9449000C9449000C94490061
:100010000C9449000C9449000C9449000C9449003C
:100020000C9449000C9449000C9449000C9449002C
:100030000C9449000C9449000C9449000C9449001C
:100040000C9449000C9449000C9449000C9449000C
:100050000C9449000C9449000C9449000C944900FC
:100060000C9449000C94490011241FBECFEFD8E036
:10007000DEBFCDBF11E0A0E0B1E0E6E2F2E002C0F9
:1000800005900D92AC30B107D9F70E94F4000C94A2
:1000900011010C9400009C01CB015F9A21503109A1
:1000A00020F45F98019740F40895E9EFF0E031976C
:1000B000F1F700C00000F2CFE9EFF0E03197F1F77F
:1000C00000C00000EFCFEC01892B39F462E370E04F
:1000D00082E390E00E944B00F9CF90E0E92E91E09E
:1000E000F92E10E01F5F00E068E770E080E590E027
:1000F0000E944B000F5F0117B8F383E294EF019762
:10010000F1F700C00000F7018081FE010995082F7A
:10011000F701918087E0C82ED12CA02EB12CC5010B
:100120000C2C02C0969587950A94E2F768E770E078
:1001300080FF57C08CED90E00E944B00F1E0CF1A99
:10014000D10868F783E294EF0197F1F700C000004F
:100150006AEF70E084EF91E0901681F06AE570E05C
:100160008AE590E00E944B006AE570E08AE590E045
:100170000E944B006AEF70E08AE590E00E944B001D
:100180006AE570E08CE390E00E944B006CED70E05B
:100190008CE390E00E944B0092E0E90EF11C1630D7
:1001A00009F0A0CFEFEBF4ED21E0E150F04020406A
:1001B000E1F700C0000068E770E088EC90E00E9482
:1001C0004B0068E770E088EC90E00E944B008FE104
:1001D0009FEBE2E081509040E040E1F700C000007A
:1001E0007CCF86E490E0A8CF579A259A3C9A559AFE
:1001F0002D9844985D9A5F985F982FE986E891E082
:10020000215080409040E1F700C000005F9A2FE944
:1002100086E891E0215080409040E1F700C0000066
:06022000EBCFF894FFCFC4
:0C0226000E12017503800501084009401C
:00000001FF
